{
  "contractName": "SimpleStructStorage",
  "abi": [
    {
      "anonymous": false,
      "inputs": [
        {
          "components": [
            {
              "internalType": "uint256",
              "name": "Id",
              "type": "uint256"
            },
            {
              "internalType": "string",
              "name": "Name",
              "type": "string"
            }
          ],
          "indexed": false,
          "internalType": "struct SimpleStructStorage.Data",
          "name": "d",
          "type": "tuple"
        }
      ],
      "name": "SET",
      "type": "event"
    },
    {
      "inputs": [
        {
          "components": [
            {
              "internalType": "uint256",
              "name": "Id",
              "type": "uint256"
            },
            {
              "internalType": "string",
              "name": "Name",
              "type": "string"
            }
          ],
          "internalType": "struct SimpleStructStorage.Data",
          "name": "x",
          "type": "tuple"
        }
      ],
      "name": "set",
      "outputs": [],
      "stateMutability": "nonpayable",
      "type": "function"
    },
    {
      "inputs": [],
      "name": "get",
      "outputs": [
        {
          "components": [
            {
              "internalType": "uint256",
              "name": "Id",
              "type": "uint256"
            },
            {
              "internalType": "string",
              "name": "Name",
              "type": "string"
            }
          ],
          "internalType": "struct SimpleStructStorage.Data",
          "name": "x",
          "type": "tuple"
        }
      ],
      "stateMutability": "view",
      "type": "function",
      "constant": true
    }
  ],
  "bytecode": "0x608060405234801561001057600080fd5b5061052c806100206000396000f3fe608060405234801561001057600080fd5b50600436106100365760003560e01c80636d4ce63c1461003b578063a16fc8d414610059575b600080fd5b610043610075565b60405161005091906103eb565b60405180910390f35b610073600480360381019061006e9190610325565b61013b565b005b61007d6101a1565b600060405180604001604052908160008201548152602001600182018054600181600116156101000203166002900480601f01602080910402602001604051908101604052809291908181526020018280546001816001161561010002031660029004801561012d5780601f106101025761010080835404028352916020019161012d565b820191906000526020600020905b81548152906001019060200180831161011057829003601f168201915b505050505081525050905090565b80600080820151816000015560208201518160010190805190602001906101639291906101bb565b509050507f9201d7f4fe301793272cc81d961354663827285cde010a4da0c33183adfe08c48160405161019691906103eb565b60405180910390a150565b604051806040016040528060008152602001606081525090565b828054600181600116156101000203166002900490600052602060002090601f016020900481019282601f106101fc57805160ff191683800117855561022a565b8280016001018555821561022a579182015b8281111561022957825182559160200191906001019061020e565b5b509050610237919061023b565b5090565b5b8082111561025457600081600090555060010161023c565b5090565b600082601f83011261026957600080fd5b813561027c6102778261043a565b61040d565b9150808252602083016020830185838301111561029857600080fd5b6102a383828461048c565b50505092915050565b6000604082840312156102be57600080fd5b6102c8604061040d565b905060006102d884828501610310565b600083015250602082013567ffffffffffffffff8111156102f857600080fd5b61030484828501610258565b60208301525092915050565b60008135905061031f816104df565b92915050565b60006020828403121561033757600080fd5b600082013567ffffffffffffffff81111561035157600080fd5b61035d848285016102ac565b91505092915050565b600061037182610466565b61037b8185610471565b935061038b81856020860161049b565b610394816104ce565b840191505092915050565b60006040830160008301516103b760008601826103dc565b50602083015184820360208601526103cf8282610366565b9150508091505092915050565b6103e581610482565b82525050565b60006020820190508181036000830152610405818461039f565b905092915050565b6000604051905081810181811067ffffffffffffffff8211171561043057600080fd5b8060405250919050565b600067ffffffffffffffff82111561045157600080fd5b601f19601f8301169050602081019050919050565b600081519050919050565b600082825260208201905092915050565b6000819050919050565b82818337600083830152505050565b60005b838110156104b957808201518184015260208101905061049e565b838111156104c8576000848401525b50505050565b6000601f19601f8301169050919050565b6104e881610482565b81146104f357600080fd5b5056fea2646970667358221220fb2ea66fe977c3f4a15c5e26ddab1f6f2c04c91438950141b871f450e86ee24f64736f6c63430007010033",
  "immutableReferences": {},
  "source": "pragma solidity ^0.7.1;\npragma experimental ABIEncoderV2;\n// SPDX-License-Identifier: MIT\n\ncontract SimpleStructStorage {\n    struct Data {\n        uint Id;\n        string Name;\n    } \n    \n    Data storedData;\n\n    event SET(Data d);\n    function set(Data memory x) public {\n        storedData = x;\n        emit SET(x);\n    }\n\n    function get() public view returns (Data memory x) {\n        return storedData;\n    }\n}\n",
  "sourcePath": "/Users/yamadakinya/work/bc-api-service/bc-smart-contract/contracts/SimpleStructStorage.sol",
  "compiler": {
    "name": "solc",
    "version": "0.7.1+commit.f4a555be.Emscripten.clang"
  },
  "schemaVersion": "3.2.3",
  "updatedAt": "2021-01-10T09:35:06.455Z",
  "networkType": "ethereum",
  "devdoc": {
    "kind": "dev",
    "methods": {},
    "version": 1
  },
  "userdoc": {
    "kind": "user",
    "methods": {},
    "version": 1
  }
}